S014000041737369676E6D656E7430352E7372656392
S11300007AC0000095C0000093C00000D9C300006E
S11300108FC000008DC000008BC0000089C00000AC
S113002087C0000085C0000083C0000081C00000BC
S11300307FC000007DC000007BC0000079C00000CC
S113004077C0000075C0000073C0000071C00000DC
S11300506FC000006DC000006BC0000069C00000EC
S113006067C0000065C0000063C0000061C00000FC
S11300705FC000005DC000005BC0000059C000000C
S113008057C0000055C0000053C0000051C000001C
S11300904FC000004DC000004BC00000FEC3000074
S11300A047C0000045C00000E4C0000041C000009B
S11300B03FC000003DC000003BC0000039C000004C
S11300C037C0000035C0000033C0000031C000005C
S11300D02FC000002DC000002BC0000029C000006C
S11300E027C00000D000D200D400D600D800DA0027
S11300F0DC00DE00E00011241FBECFEFD1E2DEBF42
S1130100CDBF22E0A6E0B2E001C01D92AB32B2073F
S1130110E1F712E0A0E0B2E0ECE0F1E100E00BBFB7
S113012002C007900D92A630B107D9F703D5ECC7EA
S113013067CF84B18E6084B9E7E0F1E080818860A4
S113014080832B9A8FE080930A0108951092A00077
S1130150E1EAF0E010828FE990E09093A9008093A7
S1130160A8001092A5001092A4008081846080836E
S113017080818D7F808380818E7F80838081886071
S11301808083E2E7F0E0808182608083089590E0DC
S1130190FC013197E930F105A8F4EE58FF4F59C638
S11301A080E608958AED089582EF089586E608951D
S11301B086EB08958EEB089580EE08958EEF0895F2
S11301C086EF08958CEF0895EF92FF920F931F939B
S11301D0CF93DF938C011092140210921502809138
S11301E012029091130207D7809115028C5F8093BD
S11301F0150290E068D69093130280931202C0E037
S1130200D0E0E0901202F0901302EC0EFD1E980173
S1130210ADECBCEC27D696958795969587959695E3
S113022087959C01220F331F880F991F880F991FF0
S1130230880F991F820F931F202F281B822FA7DF5F
S1130240F70180839801ADECBCEC0CD68C011695BB
S1130250079516950795169507952196C430D105EF
S113026081F674DFDF91CF911F910F91FF90EF9092
S113027008951F920F920FB60F9211240BB60F928E
S11302802F933F938F939F93EF93FF9320E030E05E
S113029080911402E0911202F0911302E80FF11D13
S11302A0808190E0022E02C0959587950A94E2F72A
S11302B080FF02C02A9A01C02A98299A29982F5FA0
S11302C03F4F2830310521F7EBE0F1E08081807F5A
S11302D08083208181E090E00090140202C0880FA6
S11302E0991F0A94E2F7822B8083E8E0F1E0808191
S11302F0886080838081877F8083809114028F5FF0
S11303008093140290911502891302C01092140272
S1130310FF91EF919F918F913F912F910F900BBE81
S11303200F900FBE0F901F9018950F931F93CF93AC
S1130330DF9300D01F92CDB7DEB7062F142F9DECAC
S1130340899F912D1124969596959695392F330F63
S1130350232F220F220F230F821B20E1929F800D57
S113036011248F7B898321E0AE014F5F5F4F62E0F0
S113037088E65BD257D28111FDCF8DEC089F812D89
S11303801124869586958695282F220F922F990FF2
S1130390990F920F091B90E1899F000D11240A8384
S11303A021E0AE014E5F5F4F61E088E63ED23AD273
S11303B08111FDCF8DEC189F812D11248695869592
S11303C08695282F220F922F990F990F920F191BA0
S11303D020E1829F100D11241B8321E0AE014D5FAB
S11303E05F4F60E088E621D21DD28111FDCF0F90CE
S11303F00F900F90DF91CF911F910F910895FF926D
S11304000F931F93CF93DF9300D01F92CDB7DEB726
S1130410182FF62E042F8DEC189F812D112486950C
S113042086958695282F220F922F990F990F920F58
S1130430212F291B922F20E1829F900D1124998353
S113044021E0AE014F5F5F4F66E088E6EED1EAD16E
S11304508111FDCF8DECF89E812D11248695869512
S11304608695282F220F922F990F990F920FF91A20
S113047090E1899FF00C112489E2189F112D112419
S113048012951F7020E8129FC00111248F298A83BE
S113049021E0AE014E5F5F4F65E088E6C6D1C2D170
S11304A08111FDCF8DEC089F812D112486958695B1
S11304B08695282F220F922F990F990F920F091BBF
S11304C090E1899F000D11240B8321E0AE014D5F63
S11304D05F4F64E088E6A9D1A5D18111FDCF0F90CB
S11304E00F900F90DF91CF911F910F91FF9008957E
S11304F0CF92DF92EF92FF920F931F93CF93DF93EC
S11305006C017B018A0183E090E0DDD4EC0121E001
S1130510AC0162E088E6A7D185D18111FDCFFE014F
S11305208191AF01982F92959F70990F292F220FD7
S1130530220F920F8F70890FF601808321E061E012
S113054088E691D16FD18111FDCF8981982F929541
S11305509F70990F292F220F220F920F8F70890FEE
S1130560F701808321E0AE014E5F5F4F60E088E6D3
S11305707AD158D18111FDCF8A81982F92959F709D
S1130580990F292F220F220F920F8F70890FF801D4
S11305908083CE0130D5DF91CF911F910F91FF90D1
S11305A0EF90DF90CF900895CF92DF92EF92FF9279
S11305B00F931F93CF93DF936C017B018A0183E038
S11305C090E081D4EC0121E0AC0166E088E64BD1F7
S11305D029D18111FDCFFE018191AF01982F929510
S11305E09F70990F292F220F220F920F8F70890F5E
S11305F0F601808321E065E088E635D113D18111CD
S1130600FDCF898184FB992790F9990F292F220F17
S1130610220F920F8F70890FF701808321E0AE01C2
S11306204E5F5F4F64E088E61ED1FCD08111FDCFA0
S11306308A81982F92959F70990F292F220F220F4C
S1130640920F8F70890FF8018083CE01D4D4DF918B
S1130650CF911F910F91FF90EF90DF90CF9008956D
S1130660DF92EF92FF920F931F93CF93DF9300D00B
S113067000D01F92CDB7DEB7E82EF62E142FD22E5F
S11306801092060285E0898321E0AE014F5F5F4F3F
S11306906EE088E6CAD0C6D08111FDCF9DECE99EFC
S11306A0912D1124969596959695292F220F822F98
S11306B0880F880F820FE81A8E2D20E1929F800DFB
S11306C011248F738A8321E0AE014E5F5F4F69E08E
S11306D088E6ABD0A7D08111FDCF9DECF99E912D7A
S11306E01124969596959695292F220F822F880F7F
S11306F0880F820FF81A8F2D20E1929F800D11240C
S11307008F778B8321E0AE014D5F5F4F68E088E611
S11307108CD088D08111FDCF8DEC189F812D1124B0
S1130720869586958695282F220F922F990F990FDB
S1130730920F191B90E1899F100D11241F771C83C0
S113074021E0AE014C5F5F4F67E088E66ED06AD06F
S11307508111FDCF8DECD89E812D1124869586952F
S11307608695282F220F922F990F990F920FD91A3D
S113077020E1829FD00C112480E4089F8001112481
S11307800D2500680D8321E0AE014B5F5F4F6AE0E9
S113079088E64BD047D08111FDCF0F900F900F907A
S11307A00F900F90DF91CF911F910F91FF90EF90D9
S11307B0DF9008958091060208951092060208952C
S11307C01F920F920FB60F9211240BB60F928F93B4
S11307D0EF93FF9381E080930602E9E6F0E08081E5
S11307E080628083EA9AFF91EF918F910F900BBE04
S11307F00F900FBE0F901F9018959B01AC01E9EB71
S1130800F0E080818C7F808360E070E880E790E096
S113081004D320512695E8EBF0E0208310921102D6
S11308208081089580911102089591E090931102BE
S11308308093100260930F0250930E0240930D02B6
S113084020930C0210920B02ECEBF0E080E8808322
S113085080818560808380818062808380818068DC
S1130860808380E0089591E09093110280931002B8
S113087060930F0250930A024093090220930802E6
S11308801092070290930B02ECEBF0E080E8808377
S113089080818566808380E008951F920F920FB651
S11308A00F9211240BB60F922F938F939F93EF9374
S11308B0FF9380910B0281113DC08091B900883172
S11308C091F08832C1F0883009F09CC0EBEBF0E085
S11308D01082908180911002880F892B808385EC8F
S11308E08093BC008FC080910F028093BB0085EC85
S11308F08093BC0087C020910C02822F90E0019766
S113090032F485ED8093BC00109211027BC0E0911B
S11309100D02F0910E02E20FF11D31978081809358
S1130920BB0080910C02815080930C0285EC809373
S1130930BC0068C08091B900883239F140F480313C
S113094041F18831D1F0883009F05CC009C08035AC
S1130950B1F1883509F451C0803409F053C027C07F
S1130960EBEBF0E01082908180911002880F892BCC
S1130970808385EC8093BC0045C080910F028093F6
S1130980BB0085EC8093BC003DC085EE8093BC0029
S113099039C0EBEBF0E081E080839081809110021C
S11309A0880F892B808385EC8093BC002BC08091B9
S11309B00F028093BB0085EC8093BC0023C0809120
S11309C007029091BB00E0910902F0910A02E80F3E
S11309D0F11D90838F5F80930702809108028150FC
S11309E08093080290E0019722F485E88093BC008C
S11309F009C085EC8093BC0005C085ED8093BC00E4
S1130A0010921102FF91EF919F918F912F910F906E
S1130A100BBE0F900FBE0F901F901895E5E0F1E00C
S1130A2080818F6080830895CF93DF9310920401B7
S1130A3020E030E0C0E8D0E0A4E0B1E0E3E0F1E0A1
S1130A40622FAE01022E02C0559547950A94E2F733
S1130A504C93908193FF0FC0908192FF08C09081C6
S1130A6091FF07C0908190FD0BC083E005C081E039
S1130A7003C082E001C080E0660F660F860F06C0E7
S1130A802F5F3F4F24303105D9F68FEFDF91CF919F
S1130A900895809116028130E1F030F0823071F1D6
S1130AA0833009F440C0089580911B0290911C0288
S1130AB08D51924039F483E292E090931C0280932A
S1130AC01B0208958DE192E090931C0280931B0217
S1130AD0089580911B0290911C028352924039F434
S1130AE086E292E090931C0280931B02089583E2B5
S1130AF092E090931C0280931B02089580911B0244
S1130B0090911C028252924039F487E192E09093D2
S1130B101C0280931B02089582E292E090931C02CF
S1130B2080931B02089581E292E090931C028093CB
S1130B301B020895CF93DF931F92CDB7DEB760E514
S1130B4073EC80E090E059DEF4DA68DF5298E9E66D
S1130B50F0E0808180628083EA9A8FEF80931902AB
S1130B60109225021092240210921E021092160274
S1130B701092200210921F0210921A0281E090E05B
S1130B80A2D190931C0280931B0287E180932602DA
S1130B9080E28093230282E380931D0283E18093A9
S1130BA021028BE0809317028BE180932202109242
S1130BB01802789440911D024B5F00E020912202BC
S1130BC060912302809126024BDD40911D026091C9
S1130BD0230280912602A9DB409122026091170230
S1130BE0809121020CDC14E6E5DD882309F43FC082
S1130BF021E0AE014F5F5F4F6FE088E634DE12DE26
S1130C008111FDCF21E0AE014F5F5F4F6EE088E6BA
S1130C102ADE08DE8111FDCF21E048E152E06FE0D9
S1130C2088E603DEFFDD8111FDCFC7DD81E69EE1AD
S1130C30CBDA2FE784E89EE1215080409040E1F731
S1130C4000C0000040911D024B5F00E02091220291
S1130C50609123028091260203DD21E0AE014F5F03
S1130C605F4F6EE088E6FFDDDDDD8111FDCFDCDE68
S1130C7080931E0290911902891709F449C0809348
S1130C8019028230A1F12CF4882341F08130B1F0B3
S1130C903FC08330A1F18430D1F13AC08091160273
S1130CA0833018F01092160203C08F5F80931602EF
S1130CB080911A02882381F1ECDE2AC080911A0205
S1130CC0811104C081E080931A0234C040911D0256
S1130CD0609123028091260228DB409122026091D8
S1130CE01702809121028BDB10921A0215C0E09149
S1130CF01B02F0911C0280818F5F808309C0E09108
S1130D001B02F0911C0280818150808301C0C1DEEE
S1130D1080911A0281110EC042E252E067E172E052
S1130D2081E292E041DC4DE152E063E272E086E26E
S1130D3092E0DEDB80911602813011F130F08230D6
S1130D40D1F1833009F452C04FCF20912302809116
S1130D501D0290E0129F800D911D1124909320029A
S1130D6080931F0220912402309125028217930759
S1130D7009F43ACF909325028093240225DA34CFE4
S1130D80209126028091230290E0129F800D911DF4
S1130D9011249093200280931F0220912402309109
S1130DA025028217930709F41FCF9093250280939D
S1130DB024020ADA19CF209117028091220290E0CE
S1130DC0129F800D911D11249093200280931F0285
S1130DD020912402309125028217930709F404CF4D
S1130DE09093250280932402EFD9FECE80912102B4
S1130DF090E08053984F9093200280931F0220919B
S1130E002402309125028217930709F4EDCE9093C2
S1130E10250280932402D8D9E7CE052E97FB16F439
S1130E2000940FD057FD05D02CD007FC02D046F417
S1130E3008C050954095309521953F4F4F4F5F4FD7
S1130E40089590958095709561957F4F8F4F9F4F32
S1130E500895EE0FFF1F0024001C0BBE0790F691AF
S1130E60E02D0994A29FB001B39FC001A39F700D10
S1130E70811D1124911DB29F700D811D1124911D9E
S1130E800895A1E21A2EAA1BBB1BFD010DC0AA1FC7
S1130E90BB1FEE1FFF1FA217B307E407F50720F0DF
S1130EA0A21BB30BE40BF50B661F771F881F991F5A
S1130EB01A9469F760957095809590959B01AC01A3
S1130EC0BD01CF0108950F931F93CF93DF93823019
S1130ED0910510F482E090E0E0912902F0912A0259
S1130EE020E030E0A0E0B0E0309719F1408151817A
S1130EF00281138148175907C8F08417950769F4CC
S1130F00109731F012960C93129713961C9327C0E6
S1130F100093290210932A0222C02115310519F0E9
S1130F204217530718F49A01BD01EF01DF01F801DC
S1130F30DBCF21153105F9F0281B390B243031059D
S1130F4080F48A819B816115710521F0FB019383F3
S1130F50828304C090932A0280932902FE01329670
S1130F6044C0FE01E20FF31F819391932250310993
S1130F70398328833AC02091270230912802232BF9
S1130F8041F420910202309103023093280220930D
S1130F90270220910002309101022115310541F40C
S1130FA02DB73EB74091040250910502241B350B26
S1130FB0E0912702F0912802E217F307A0F42E1B18
S1130FC03F0B2817390778F0AC014E5F5F4F2417A9
S1130FD0350748F04E0F5F1F5093280240932702B5
S1130FE08193919302C0E0E0F0E0CF01DF91CF91D3
S1130FF01F910F910895CF93DF93009709F481C057
S1131000FC01329713821282A0912902B0912A0224
S1131010109781F420813181820F931F2091270240
S1131020309128022817390751F5F0932802E093EC
S1131030270267C0ED0120E030E0CE17DF0740F45F
S11310404A815B819E0141155105F1F0EA01F5CF1A
S1131050D383C28340815181840F951FC817D90758
S113106059F488819981840F951F02969183808316
S11310708A819B81938382832115310529F4F0931E
S11310802A02E09329023DC0E901FB83EA834991E6
S11310905991C40FD51FEC17FD0761F4808191812C
S11310A0840F951F0296E901998388838281938135
S11310B09B838A83E0E0F0E012968D919C911397D4
S11310C0009719F0FD01DC01F7CF8D919C911197E8
S11310D09D012E5F3F4F820F931F20912702309175
S11310E028022817390769F4309729F410922A0244
S11310F01092290202C013821282B0932802A09394
S10F11002702DF91CF910895F894FFCFEF
S109110C00002B0220008C
S9030000FC
